:100000000C94C7010C94E4010C94E4010C94E401F9
:100010000C94E4010C94E4010C94E4010C94E401CC
:100020000C94E4010C94E4010C94E4010C94E401BC
:100030000C94E4010C94E4010C94E4010C94E401AC
:100040000C94E4010C94E4010C94E4010C94E4019C
:100050000C94E4010C94E4010C94E4010C94E4018C
:100060000C94E4010C94E4010C94E4010C94E4017C
:100070000C94E4010C94E4010C94E4010C94E4016C
:100080000C94E4010C94E4010C94E4010C94E4015C
:100090000C94E4010C94E4010C94E4010C94E4014C
:1000A0000C94E4010C94E4010C94E4016E616E0084
:1000B000696E660000407A10F35A00A0724E18096B
:1000C0000010A5D4E80000E87648170000E40B54BF
:1000D000020000CA9A3B000000E1F505000080968E
:1000E0009800000040420F000000A08601000000C0
:1000F000102700000000E80300000000640000007A
:1001000000000A00000000000100000000002C7642
:10011000D888DC674F0823DFC1DFAE59E1B1B7965D
:10012000E5E3E453C63AE651997696E8E6C28426BA
:10013000EB898C9B62ED407C6FFCEFBC9C9F40F296
:10014000BAA56FA5F490055A2AF75C936B6CF96712
:100150006DC11BFCE0E40D47FEF520E6B500D0EDD7
:10016000902E0300943577050080841E080000203F
:100170004E0A000000C80C333333330F986E1283DD
:100180001141EF8D2114893BE65516CFFEE6DB18B1
:10019000D1844B381BF77C1D901DA4BBE424203276
:1001A00084725E228100C9F124ECA1E53D270000A4
:1001B00000000000005F00000007000700147F142B
:1001C0007F14242A7F2A1223130864623649552299
:1001D000500005030000001C2241000041221C00C9
:1001E00014083E081408083E0808005030000008B3
:1001F00008080808006060000020100804023E5152
:1002000049453E00427F40004261514946214145F7
:100210004B311814127F1027454545393C4A49494E
:100220003001710905033649494936064949291EF5
:100230000036360000005636000008142241001433
:100240001414141400412214080201510906324901
:1002500079413E7E1111117E7F494949363E414127
:1002600041227F4141221C7F494949417F090909B7
:10027000013E4149497A7F0808087F00417F4100DB
:100280002040413F017F081422417F404040407F91
:10029000020C027F7F0408107F3E4141413E7F09EE
:1002A0000909063E4151215E7F09192946464949FF
:1002B000493101017F01013F4040403F1F20402064
:1002C0001F3F4038403F6314081463070870080755
:1002D0006151494543007F4141000204081020005C
:1002E00041417F00040201020440404040400001BF
:1002F00002040020545454787F484444383844441D
:100300004420384444487F3854545418087E090126
:10031000020C5252523E7F0804047800447D400093
:100320002040443D007F1028440000417F40007C75
:10033000041804787C0804047838444444387C1455
:10034000141408081414187C7C0804040848545435
:100350005420043F4440203C4040207C1C2040204E
:100360001C3C4030403C44281028440C5050503C29
:100370004464544C44000836410000007F000000F3
:1003800041360800100808100878464146781124C4
:100390001FBECFEFDAE0DEBFCDBF11E0A0E0B1E0DD
:1003A000E6EEFBE102C005900D92A235B107D9F748
:1003B00023E0A2E5B1E001C01D92A236B207E1F749
:1003C0000E94EC030C94F10D0C940000EF92FF924C
:1003D0000F931F93CF93DF93E2E6F1E067E070E0C5
:1003E00001E010E02081AAE0B1E080E090E04D91D2
:1003F0007801082E01C0EE0C0A94EAF7E0942E2151
:1004000050E0062E02C0559547950A94E2F7342F26
:100410003170C32F30E0D32FAE01082E01C0440F3E
:100420000A94EAF7242B01968830910501F721936D
:1004300061507109B8F6DF91CF911F910F91FF9034
:10044000EF900895E1E6F0E080E8808381E080832A
:1004500021982798509851982098869885988FE3EE
:100460000E944D066DE080E00C942C060E94FD0376
:1004700021E042E151E060E070E082E190E00E9422
:10048000F40521E04CE151E068E070E082E190E0A9
:100490000E94F40521E046E251E068E170E087E166
:1004A00090E00E94F40521E04EE251E060E270E04D
:1004B00082E190E00E94F40521E048E351E068E227
:1004C00070E08AE090E00E94F4050E9419060C9406
:1004D000E6010F931F93CF93DF93CDB7DEB7A097BD
:1004E0000FB6F894DEBF0FBECDBF21E04CE460E054
:1004F00070E080E090E00E94920521E04AE460E034
:1005000070E084E190E00E94920521E043E560E024
:1005100070E088E290E00E94920540910401405D05
:1005200021E060E070E085E090E00E94920540915B
:100530000201405D21E060E070E089E190E00E940E
:10054000920540915801405D21E060E070E08DE24D
:1005500090E00E94920501E028E030E043E550E0A1
:1005600068E070E080E090E00E944004209100018B
:10057000309101018091520190915301B9010E9483
:10058000B30B215031098217930749F4809156012A
:100590009091570101969093570180935601809155
:1005A000560190915701CC976CF010925701109220
:1005B00056018091540190915501019690935501F7
:1005C00080935401809157018F93809156018F93AE
:1005D000809155018F93809154018F9385E491E030
:1005E0009F938F938E010F5F1F4F1F930F930E9456
:1005F000610D21E0A80160E070E08BE390E00E94D3
:10060000F40580915201909153010196909353010A
:10061000809352010FB6F894DEBF0FBECDBFA096F7
:100620000FB6F894DEBF0FBECDBFDF91CF911F9103
:100630000F910895AF92BF92CF92DF92EF92FF9207
:100640000F931F93CF93DF938C01D62FC72F60E2B8
:1006500080E00E942C06602F606880E00E942C06DB
:100660008D2F9C2F97FD0796EC0183E0D595C795BC
:100670008A95E1F76C2F606480E00E942C0624E5E7
:100680002C9FC0012D9F900D1124080F191F92E679
:10069000E92E91E0F92E2AE6C22E21E0D22EAA24DC
:1006A000A394B12CE801C659DE4FF701C5010190B2
:1006B00002C0880F991F0A94E2F77F0168816827BA
:1006C00081E00E942C06CE14DF0479F7DF91CF91F0
:1006D0001F910F91FF90EF90DF90CF90BF90AF9060
:1006E0000895CF93DF93CDB7DEB72A970FB6F8946E
:1006F000DEBF0FBECDBF0E94FD0360910601709169
:10070000070180910801909109010E941A030E943B
:1007100069024AE0BE016F5F7F4F809106019091B0
:1007200007010E94000D21E0AE014F5F5F4F6AE0BC
:1007300070E080E090E00E94F40521E048E76EE17F
:1007400070E085E090E00E94920521E048E76FE1CB
:1007500070E08AE090E00E94920521E048E760E2C4
:1007600070E08FE090E00E94920521E048E761E2AE
:1007700070E084E190E00E949205199B09C080918D
:100780000801909109010197909309018093080154
:10079000489B09C0809108019091090101969093AE
:1007A000090180930801499B09C08091060190913D
:1007B0000701019790930701809306011F9B09C0D1
:1007C0008091060190910701019690930701809313
:1007D00006010E9419068FCF0E9422020E94360253
:1007E0007D990E9471032FEF80E792E021508040B5
:1007F0009040E1F700C00000F3CFEAE6F1E011928B
:1008000083E0E236F807D9F708959C0197FD37C0D9
:1008100077FD35C08435910594F5603371057CF51D
:10082000CB0173E0959587957A95E1F76770452B35
:1008300099F0E4E58E9FF0011124E20FF31FE659D1
:10084000FE4F81E090E002C0880F991F6A95E2F7A1
:100850002081282B20830895E4E58E9FF001112448
:10086000E20FF31FE659FE4F81E090E002C0880FCF
:10087000991F6A95E2F780952081282320830895A7
:100880002F923F924F925F926F927F928F929F92A0
:10089000AF92BF92CF92DF92EF92FF920F931F938E
:1008A000DF93CF93CDB7DEB72E970FB6F894DEBFA8
:1008B0000FBECDBF7C016B014A0139011C870B873C
:1008C00084179507F9F45B0110C0C701B5014B858A
:1008D0005C850E940504C614D70424F40894A11C66
:1008E000B11C03C00894A108B108C614D7042CF4A5
:1008F0006A147B040CF4FDC0E8CFA614B7040CF412
:10090000F8C0E3CF62177307F9F45C0110C0C501AA
:10091000B6014B855C850E940504E814F90424F4B3
:100920000894A11CB11C03C00894A108B108E814E4
:10093000F9042CF48A149B040CF4DBC0E8CFA8144F
:10094000B9040CF4D6C0E3CF4817590724F4470183
:100950007A013B016901B4016E197F09882777FD8F
:100960008095982F0E94FE0A6F83788789879A87DF
:10097000B3016C197D09882777FD8095982F0E9417
:10098000FE0A6B837C838D839E832F813885498506
:100990005A850E948A0A1B012C0120E030E040E0C9
:1009A00050E00E94AE0B87FF04C057FA509457F8EE
:1009B0005094DA82C9820F2EF0E0AF2EF0E0BF2E05
:1009C000F0E0CF2EF0E0DF2EF02D7FC0C70169816F
:1009D0007A814B855C850E940504C601B501A201A0
:1009E00091010E94190A3BC0C70169817A814B8538
:1009F0005C850E9405041E861D866B817C818D812D
:100A00009E8120E030E040E050E00E94AE0B1816DE
:100A100024F421E030E03E872D8700E010E06B8178
:100A20007C818D819E8120E030E040E050E00E949A
:100A3000850A882314F401E010E08D859E85801BD3
:100A4000910BE981FA81E80FF91FFA83E983C60166
:100A5000B50120E030E040E85FE30E94180A5B0146
:100A60006C0120E030E040E05FE30E94AE0B8823A1
:100A7000CCF06B817C818D819E8120E030E040E074
:100A800050E00E94AE0B18163CF429813A816216A0
:100A900073060CF0A9CF06C089819A818615970547
:100AA0000CF0A2CF6F81788589859A8520E030E0AF
:100AB00040E050E00E94AE0B181624F40894E11CAC
:100AC000F11C03C00894E108F1086F8178858985DD
:100AD0009A8520E030E040E050E00E94AE0B18160E
:100AE00024F48E149F042CF071CFE814F9040CF058
:100AF0006DCF2E960FB6F894DEBF0FBECDBFCF914F
:100B0000DF911F910F91FF90EF90DF90CF90BF90FA
:100B1000AF909F908F907F906F905F904F903F909D
:100B20002F9008954F925F926F927F928F929F9233
:100B3000AF92BF92CF92DF92EF92FF920F931F93EB
:100B4000CF93DF933B01490125E0429FA00111248F
:100B5000AEE0EA2EA1E0FA2EE40EF51E8C01F1E0E3
:100B60004F2E512CE3E1AE2EE1E0BE2EA40EB51EB9
:100B7000F70184918114910409F48095C0E0D0E0DC
:100B8000C82EDD24BE01660D771DA2010C2E02C009
:100B9000440F551F0A94E2F74C215D210C2E02C030
:100BA000559547950A94E2F7C8010E9405042196DD
:100BB000C830D10539F70894E11CF11C0F5F1F4FB5
:100BC000EA14FB04A9F6DF91CF911F910F91FF90DA
:100BD000EF90DF90CF90BF90AF909F908F907F90DD
:100BE0006F905F904F900895CF92DF92EF92FF92B7
:100BF0000F931F93CF93DF936B017A01E901082FC5
:100C000010E008C0802F90E0B6019E010E9492057E
:100C10000B5F1F5FF701E10FF11D4081442391F746
:100C2000DF91CF911F910F91FF90EF90DF90CF90C8
:100C30000895CF93DF9380E060E00E948E06CAE6BD
:100C4000D1E081E069910E942C0683E0C236D8078A
:100C5000C1F7DF91CF91089595B18295880F807E7D
:100C60009F7D982B95B95F9827E030E070E08F98D2
:100C7000CB01022E02C0959587950A94E2F780FF7A
:100C800002C02E9A01C02E988F9A215030408FEFCB
:100C90002F3F380761F75F9A08951F93182F579ACF
:100CA000249A259A269A879A2C985F9A2C9A80E003
:100CB00061E20E942C06106880E0612F0E942C06E1
:100CC00080E064E00E942C0680E063E10E942C0634
:100CD00080E06CE00E942C0680E060E20E942C061E
:100CE00080E06CE00E942C0680E060E40E942C060C
:100CF00080E060E80E942C061F910895CF93DF9357
:100D0000C0E0D0E081E060E00E942C06219681E006
:100D1000C83FD807B9F7DF91CF9108951F93182FD7
:100D2000606480E00E942C06106880E0612F0E94C1
:100D30002C061F910895A0E1B0E0E1EAF6E00C94E2
:100D4000C70B7C011B016A01FC011782168283819B
:100D500081FF44C39E012F5F3F4F3901F70193810B
:100D6000F10193FD859193FF81911F01882309F47F
:100D700031C3853239F493FD859193FF81911F0131
:100D8000853239F4B70190E00E94250D56016501C6
:100D9000E5CF10E0512C912CFFE1F915D8F08B3202
:100DA00079F038F4803279F08332A1F4F92DF061D2
:100DB0002EC08D3261F0803369F4292D21602DC061
:100DC000392D3260932E892D8460982E2AC0E92D0A
:100DD000E86015C097FC2DC020ED280F2A3088F45C
:100DE00096FE06C03AE0139F200D1124122F19C061
:100DF0008AE0589E200D1124522EE92DE0629E2E8D
:100E000010C08E3231F496FCE5C2F92DF0649F2EAD
:100E100008C08C3621F4292D2068922E02C0883615
:100E200041F4F10193FD859193FF81911F0181119F
:100E3000B3CF9BEB980F933020F4992D9061805E97
:100E400007C09BE9980F933008F066C1992D9F7EEB
:100E500096FF16E09F73992E853619F49064992EAB
:100E600008C0863621F4392F3068932E02C0111144
:100E7000115097FE07C01C3350F444244394410E94
:100E800027E00BC0183038F027E017E005C027E056
:100E90009CE3492E02C0212F412C560184E0A80E6C
:100EA000B11CF6016081718182819381042DA301BF
:100EB0000E94120C6C01F981FC87F0FF02C0F3FF65
:100EC00006C091FC06C092FE06C000E205C00DE21D
:100ED00003C00BE201C000E08C858C7019F0011199
:100EE0005AC29BC297FE10C04C0CFC85F4FF04C094
:100EF0008A81813309F44A94141474F528E0241586
:100F000078F588E0482E2CC096FC2AC0812F90E00E
:100F10008C159D059CF03CEFC3163FEFD30674F093
:100F2000892D8068982E0AC0E2E0F0E0EC0FFD1FEA
:100F3000E10FF11D8081803319F411501111F4CFAC
:100F400097FE0EC044244394410E812F90E0C816B2
:100F5000D9062CF41C1904C04424439401C010E0A9
:100F600097FE06C01C141D0434F4C601019605C08A
:100F700085E090E002C081E090E00111019611232C
:100F800031F0212F30E02F5F3F4F820F931F252D2F
:100F900030E08217930714F4581A01C0512C892DA0
:100FA000897049F4552039F0B70180E290E00E9441
:100FB000250D5A94F7CF002329F0B701802F90E038
:100FC0000E94250D93FC09C0552039F0B70180E33C
:100FD00090E00E94250D5A94F7CF97FE4CC0460131
:100FE000D7FE02C0812C912CC60188199909F30102
:100FF000E80FF91FFE87ED87960124193109388B18
:101000002F87012F10E01195019511093FEF8316ED
:10101000930629F4B7018EE290E00E94250DC814D2
:10102000D9044CF08F8598898815990524F4ED85AD
:10103000FE85818101C080E3F1E08F1A91082D8542
:101040003E852F5F3F4F3E872D87801691062CF0FF
:10105000B70190E00E94250DD9CFC814D90441F4FE
:101060009A81963320F4953319F43C8534FF81E35B
:10107000B70190E04EC08A81813319F09C859F7E34
:101080009C87B70190E00E94250D111105C094FCCA
:1010900018C085E690E017C0B7018EE290E00E948C
:1010A000250D1E5F82E001E0080FF301E80FF11D3E
:1010B0008081B70190E00E94250D802F0113F3CFAE
:1010C000E6CF85E490E0B7010E94250DD7FC06C06D
:1010D000C114D10441F4EC85E4FF05C0D194C1945E
:1010E000D1088DE201C08BE2B70190E00E94250D8E
:1010F00080E32AE0C216D1042CF08F5FFAE0CF1A09
:10110000D108F7CFB70190E00E94250DB701C601C5
:10111000C0960E94250D54C1833631F0833779F093
:10112000833509F056C020C0560132E0A30EB11C31
:10113000F6018081898301E010E0630112C056014D
:10114000F2E0AF0EB11CF601C080D18096FE03C064
:10115000612F70E002C06FEF7FEFC6010E94F50CB7
:101160008C01F92DFF7714C0560122E0A20EB11CAC
:10117000F601C080D18096FE03C0612F70E002C0EE
:101180006FEF7FEFC6010E94EA0C8C01F92DF06829
:101190009F2EF3FD1AC0852D90E008171907A8F4BB
:1011A000B70180E290E00E94250D5A94F4CFF60139
:1011B00097FC859197FE81916F01B70190E00E94A5
:1011C000250D51105A94015011090115110579F797
:1011D000F7C0843611F0893661F5560197FE09C0D3
:1011E00024E0A20EB11CF60160817181828193819D
:1011F0000AC0F2E0AF0EB11CF60160817181072ECA
:10120000000C880B990BF92DFF769F2E97FF09C0D4
:1012100090958095709561957F4F8F4F9F4FF068A7
:101220009F2E2AE030E0A3010E94830DC82EC6182D
:101230003FC0092D853721F40F7E2AE030E01DC024
:10124000097F8F3691F018F4883559F0C3C0803784
:1012500019F0883711F0BEC0006104FF09C00460B6
:1012600007C094FE08C0066006C028E030E005C054
:1012700020E130E002C020E132E0560107FF09C062
:1012800084E0A80EB11CF601608171818281938196
:1012900008C0F2E0AF0EB11CF6016081718180E000
:1012A00090E0A3010E94830DC82EC6180F77902EE0
:1012B00096FE0BC0092D0E7FC11650F494FE0AC095
:1012C00092FC08C0092D0E7E05C0DC2C092D03C040
:1012D000DC2C01C0D12E04FF0DC0FE01EC0DF11D70
:1012E0008081803311F4097E09C002FF06C0D394C7
:1012F000D39404C0802F867809F0D39403FD11C0E5
:1013000000FF06C01C2DD51480F4150D1D190DC04D
:10131000D51458F4B70180E290E00E94250DD394D3
:10132000F7CFD51410F45D1801C0512C04FF10C084
:10133000B70180E390E00E94250D02FF17C001FD78
:1013400003C088E790E002C088E590E0B7010CC0D8
:10135000802F867859F001FF02C08BE201C080E245
:1013600007FD8DE2B70190E00E94250DC11638F40B
:10137000B70180E390E00E94250D1150F7CFCA9489
:10138000F301EC0DF11D8081B70190E00E94250D65
:10139000C110F5CF15C0F4E0F51560F584E0581ADA
:1013A00093FE1FC0011127C02C8523FF2AC00CEA21
:1013B00010E0392D3071932EF8018491811124C0F1
:1013C000552009F4E4CCB70180E290E00E94250D9D
:1013D0005A94F6CFF7018681978126C08FEF9FEF51
:1013E00023C0B70180E290E00E94250D5A9451106D
:1013F000F8CFD8CF512CB701802F90E00E94250D57
:10140000D3CF00EB10E0D5CF91108052B70190E020
:101410000E94250D0F5F1F4FCFCF23E0251510F43D
:1014200083E0BDCF512CC0CF6096E2E10C94E30B7A
:101430005058BB27AA270E94300A0C94740B0E94B4
:10144000660B38F00E946D0B20F039F49F3F19F4C1
:1014500026F40C94630B0EF4E095E7FB0C945D0B03
:10146000E92F0E94850B58F3BA17620773078407A8
:10147000950720F079F4A6F50C94A70B0EF4E095EF
:101480000B2EBA2FA02D0B01B90190010C01CA013E
:10149000A0011124FF27591B99F0593F50F4503EE9
:1014A00068F11A16F040A22F232F342F4427585FDB
:1014B000F3CF469537952795A795F0405395C9F7F3
:1014C0007EF41F16BA0B620B730B840BBAF09150AB
:1014D000A1F0FF0FBB1F661F771F881FC2F70EC04A
:1014E000BA0F621F731F841F48F48795779567951D
:1014F000B795F7959E3F08F0B0CF9395880F08F009
:101500009927EE0F9795879508950E94390B08F457
:1015100081E008950E949E0A0C94740B0E946D0B4A
:1015200058F00E94660B40F029F45F3F29F00C94BC
:101530005D0B51110C94A80B0C94630B0E94850B4E
:1015400068F39923B1F3552391F3951B550BBB27F2
:10155000AA2762177307840738F09F5F5F4F220F37
:10156000331F441FAA1FA9F335D00E2E3AF0E0E82E
:1015700032D091505040E695001CCAF72BD0FE2F78
:1015800029D0660F771F881FBB1F2617370748070C
:10159000AB07B0E809F0BB0B802DBF01FF279358C4
:1015A0005F4F3AF09E3F510578F00C945D0B0C9420
:1015B000A80B5F3FE4F3983ED4F386957795679543
:1015C000B795F7959F5FC9F7880F911D96958795F9
:1015D00097F90895E1E0660F771F881FBB1F621718
:1015E00073078407BA0720F0621B730B840BBA0BD6
:1015F000EE1F88F7E0950895E89409C097FB3EF444
:1016000090958095709561957F4F8F4F9F4F99234F
:10161000A9F0F92F96E9BB279395F69587957795CD
:101620006795B795F111F8CFFAF4BB0F11F460FF8D
:101630001BC06F5F7F4F8F4F9F4F16C0882311F0E5
:1016400096E911C0772321F09EE8872F762F05C0F9
:10165000662371F096E8862F70E060E02AF09A9594
:10166000660F771F881FDAF7880F9695879597F989
:101670000895990F0008550FAA0BE0E8FEEF161623
:101680001706E807F907C0F012161306E407F50776
:1016900098F0621B730B840B950B39F40A2661F0EA
:1016A000232B242B252B21F408950A2609F4A1408D
:1016B000A6958FEF811D811D089597F99F6780E89A
:1016C00070E060E008959FEF80EC089500240A9494
:1016D0001616170618060906089500240A9412160D
:1016E0001306140605060895092E0394000C11F440
:1016F000882352F0BB0F40F4BF2B11F460FF04C0ED
:101700006F5F7F4F8F4F9F4F089557FD9058440F45
:10171000551F59F05F3F71F04795880F97FB991F50
:1017200061F09F3F79F0879508951216130614060D
:10173000551FF2CF4695F1DF08C01616170618069A
:10174000991FF1CF86957105610508940895E89475
:10175000BB2766277727CB0197F908950E94390B9D
:1017600008F48FEF089597FB072E16F4009407D026
:1017700077FD09D00E94FE0B07FC05D03EF4909542
:1017800081959F4F0895709561957F4F08952F9291
:101790003F924F925F926F927F928F929F92AF9201
:1017A000BF92CF92DF92EF92FF920F931F93CF934E
:1017B000DF93CDB7DEB7CA1BDB0B0FB6F894DEBFE5
:1017C0000FBECDBF09942A88398848885F846E840B
:1017D0007D848C849B84AA84B984C884DF80EE8055
:1017E000FD800C811B81AA81B981CE0FD11D0FB65E
:1017F000F894DEBF0FBECDBFED010895AA1BBB1B41
:1018000051E107C0AA1FBB1FA617B70710F0A61B00
:10181000B70B881F991F5A95A9F780959095BC0121
:10182000CD010895283008F027E03327DA01990F19
:10183000311D87FD916000966105710539F43260B4
:101840002E5F3D9330E32A95E1F708959F3F30F0F6
:1018500080387105610509F03C5F3C5F3D93913034
:1018600008F08068911DDF93CF931F930F93FF9231
:10187000EF92192F987F9695E92F96959695E90FF7
:10188000FF27E25FFE4F99273327EE24FF24A701AD
:10189000E70105900894079428F4360FE71EF81E18
:1018A000491F511D660F771F881F991F0694A1F7C6
:1018B0000590079428F4E70EF81E491F561FC11D16
:1018C000770F881F991F661F0694A1F7059007944C
:1018D00028F4F80E491F561FC71FD11D880F991FE6
:1018E000661F771F0694A1F70590079420F4490F0F
:1018F000561FC71FD81F990F661F771F881F069492
:10190000A9F784911095177041F0D695C795579512
:101910004795F794E7941A95C1F7E4EBF0E06894E3
:101920001590159135916591959105907FE273958C
:10193000E118F10A430B560BC90BD009C0F7E10CB3
:10194000F11E431F561FC91FD01D7EF4703311F4C2
:101950008A95E6CFE894015030F0080F0AF400278A
:10196000021708F4202F2395022F7A3328F079E309
:101970007D932A95E9F710C07D932A9589F6069400
:1019800097956795379517951794E118F10A430BCA
:10199000560BC90BD00998F023957E9173957A3335
:1019A00008F070E37C932013B8F77E9170617D930B
:1019B00030F0839571E37D9370E32A95E1F711246C
:1019C000EF90FF900F911F91CF91DF91992787FDA5
:1019D00090950895FC010590615070400110D8F772
:1019E000809590958E0F9F1F0895FC016150704067
:1019F00001900110D8F7809590958E0F9F1F089544
:101A0000BB274A3031F4992322F4BDE290958195A9
:101A10009F4F0C940C0DBB27FB015527AA27880F5D
:101A2000991FAA1FA41710F0A41B83955051B9F752
:101A3000A05DAA3308F0A95DA193009779F7B111D1
:101A4000B1931192CB010C94E10D0F931F93CF939F
:101A5000DF93FB01238121FD03C08FEF9FEF2CC09B
:101A600022FF16C0468157812481358142175307D2
:101A700044F4A081B1819D012F5F3F4F31832083CA
:101A80008C93268137812F5F3F4F3783268314C085
:101A90008B01EC01FB010084F185E02D0995892B78
:101AA000E1F6D80116968D919C911797019617969D
:101AB0009C938E931697CE01DF91CF911F910F913A
:101AC0000895AEE0B0E0E7E6FDE00C94D50B0D899B
:101AD0001E8986E08C831A8309838FEF9FE79E839C
:101AE0008D83AE01475E5F4F6F89788DCE01019681
:101AF0000E949B06EF81F885E00FF11F10822E9661
:101B0000E4E00C94F10BFA01AA27283051F12031BE
:101B100081F1E8946F936E7F6E5F7F4F8F4F9F4F81
:101B2000AF4FB1E03ED0B4E03CD0670F781F891FC3
:101B30009A1FA11D680F791F8A1F911DA11D6A0F91
:101B4000711D811D911DA11D20D009F468943F9144
:101B50002AE0269F11243019305D3193DEF6CF0143
:101B60000895462F4770405D4193B3E00FD0C9F709
:101B7000F6CF462F4F70405D4A3318F0495D31FD76
:101B80004052419302D0A9F7EACFB4E0A6959795C9
:101B9000879577956795BA95C9F70097610571059F
:101BA00008959B01AC010A2E0694579547953795E9
:101BB0002795BA95C9F7620F731F841F951FA01D43
:101BC0000895DC01FC01672F71917723E1F73297CB
:101BD00004C07C916D9370836291AE17BF07C8F308
:061BE0000895F894FFCF08
:101BE600280005000100170017000F06060606E686
:101BF600C678416264756C617A697A006E313033F9
:101C06003739363134004A65727279277300416478
:101C160076656E747572650053573320746F207342
:101C2600746172740025322E32643A25322E326483
:021C36000000AC
:00000001FF
